:020000040800F2
:1000000000000220856F00083D4300083F430008C0
:100010004143000843430008454300080000000036
:10002000000000000000000000000000474300083E
:1000300049430008000000004B4300084D430008FE
:10004000D56F0008D56F0008D56F0008D56F000880
:10005000D56F0008D56F0008D56F0008D56F000870
:10006000D56F0008D56F0008D56F0008D56F000860
:10007000D56F0008D56F0008D56F0008D56F000850
:10008000D56F0008D56F0008D56F0008000000008C
:10009000000000000000000000000000D56F000814
:1000A000D56F0008D56F0008D56F0008D56F000820
:1000B000D56F0008D56F0008D56F0008D56F000810
:1000C000D56F0008D56F0008D56F0008D56F000800
:1000D000D56F00085D430008D56F000800000000E0
:1000E000D56F0008D56F0008D56F0008000000002C
:1000F000000000000000000000000000D56F0008B4
:1001000000000000D56F0008D56F0008D56F00080B
:1001100000000000000000000000000000000000DF
:10012000D56F0008D56F0008D56F0008D56F00089F
:10013000D56F000800000000000000000000000073
:1001400000000000000000000000000069430008FB
:10015000D56F0008D56F0008D56F0008D56F00086F
:10016000D56F0008D56F00080000000000000000F7
:10017000000000000000000000000000000000007F
:1001800000000000D56F0008000000000000000023
:08019000D56F0008D56F0008CF
:1001A00010B5054C237833B9044B13B10448AFF3B1
:1001B00000800123237010BD2402002000000000F5
:1001C000D078000808B5034B1BB103490348AFF3CF
:1001D000008008BD0000000028020020D078000840
:1001E000034613F8012B002AFBD1181A0138704777
:1001F00001F0FF01102A2BDB10F0070F08D010F8D8
:10020000013B013A8B422DD010F0070F42B3F6D1DB
:10021000F0B441EA012141EA014122F007047FF0F4
:1002200000070023F0E80256083C85EA010586EA4B
:10023000010685FA47F5A3FA87F586FA47F6A5FA87
:1002400087F68EB9EED1F0BC01F0FF0102F0070293
:1002500032B110F8013B013A83EA010313B1F8D13E
:100260000020704701387047002D06BF354603381F
:10027000073815F0010F07D1013015F4807F02BF58
:10028000013015F4C03F0130F0BC0138704700BFA9
:1002900053B94AB9002908BF00281CBF4FF0FF31ED
:1002A0004FF0FF3000F07AB9ADF1080C6DE904CEE3
:1002B00000F006F8DDF804E0DDE9022304B0704741
:1002C0002DE9F0478C460D460446089E002B51D17F
:1002D0008A4217466DD9B2FA82FEBEF1000F0BD0EA
:1002E000CEF1200C01FA0EF520FA0CFC02FA0EF702
:1002F0004CEA050C00FA0EF44FEA174A250CBCFB39
:10030000FAF81FFA87F90AFB18CC45EA0C4508FBF6
:1003100009F3AB420AD9ED1908F1FF3280F02381CD
:10032000AB4240F22081A8F102083D44ED1AA4B28C
:10033000B5FBFAF00AFB105544EA054400FB09F945
:10034000A14509D9E41900F1FF3380F00A81A145E4
:1003500040F2078102383C44A4EB090440EA08401B
:100360000021002E61D024FA0EF400233460736063
:10037000BDE8F0878B4207D9002E54D0002186E8D3
:1003800021000846BDE8F087B3FA83F1002940F068
:100390008E80AB4202D3824200F2FA80841A65EB6F
:1003A00003050120AC46002E3FD086E81010BDE8C2
:1003B000F08712B90127B7FBF2F7B7FA87FEBEF153
:1003C000000F34D1EB1B3A0C1FFA87FC0121B3FB61
:1003D000F2F8250C02FB183345EA03450CFB08F341
:1003E000AB4207D9ED1908F1FF3002D2AB4200F25F
:1003F000D1808046ED1AA3B2B5FBF2F002FB105596
:1004000043EA05440CFB00FCA44507D9E41900F1BC
:10041000FF3302D2A44500F2B8801846A4EB0C04C6
:1004200040EA08409DE731463046BDE8F087CEF10E
:10043000200405FA0EF307FA0EF720FA04F83A0C36
:1004400025FA04F448EA0308B4FBF2F14FEA184530
:1004500002FB11441FFA87FC45EA044501FB0CF33B
:10046000AB4200FA0EF409D9ED1901F1FF3080F02A
:100470008A80AB4240F2878002393D44EB1A1FFA72
:1004800088F5B3FBF2F002FB103345EA034500FBAD
:100490000CF3AB4207D9ED1900F1FF386FD2AB4234
:1004A0006DD902383D44EB1A40EA01418FE7C1F1B2
:1004B000200722FA07F88B4005FA01F448EA030303
:1004C00020FA07FE4FEA134CFD404EEA040EB5FB3E
:1004D000FCF94FEA1E440CFB19551FFA83F844EA55
:1004E000054509FB08F4AC4202FA01F200FA01FAF0
:1004F00008D9ED1809F1FF3043D2AC4241D9A9F136
:1005000002091D442D1B1FFA8EFEB5FBFCF00CFBEF
:1005100010554EEA054400FB08F8A04507D9E41839
:1005200000F1FF3529D2A04527D902381C4440EA02
:100530000940A4EB0804A0FB02894C45C6464D4681
:1005400015D312D056B1BAEB0E0364EB050404FACE
:1005500007F7CB401F43CC40376074600021BDE8F3
:10056000F0871846F8E69046E0E6C245EAD2B8EBD6
:10057000020E69EB03050138E4E72846D7E7404659
:1005800091E78146BEE7014678E702383C4445E7FB
:10059000084608E7A8F102083D442BE7704700BF72
:1005A00038B50E4A0E4B054618784FF47A73B3FBF4
:1005B000F0F31068B0FBF3F000F0A8F8044658B967
:1005C0000F2D09D8024629464FF0FF3000F05EF8A3
:1005D000044B20461D6038BD012038BD5801002065
:1005E000000000200400002008B50B4B1A6842F4FC
:1005F00000721A601A6842F480621A601A6842F443
:1006000080721A60032000F02FF80020FFF7C8FF67
:1006100003F076FD002008BD003C0240034A044B75
:1006200011681B780B441360704700BF5C02002008
:1006300000000020014B1868704700BF5C020020DA
:1006400038B50446FFF7F6FF631C1CBF054B1B784B
:10065000054618BFE418FFF7EDFF401B8442FAD8A7
:1006600038BD00BF00000020074AD36823F4E063D0
:100670001B041B0C43F0BF63000243F4003300F47F
:10068000E0600343D360704700ED00E0174B30B5E6
:10069000DC68C4F30224C4F10703251D042B28BF22
:1006A0000423062D4FF0010505FA03F303F1FF3390
:1006B0008CBF033C00241940A14005FA04F4013C1E
:1006C0002240002842EA01024FEA0212AFBF00F1C5
:1006D000604000F00F00064BD2B2A5BF00F56140AC
:1006E000D2B21A5480F8002330BD00BF00ED00E004
:1006F00014ED00E04209012300F01F0003FA00F0AE
:10070000014B43F82200704700E100E00138B0F1EE
:10071000807F0AD2064B074A5860F02182F82310E6
:100720000020072298601A6070470120704700BFC0
:1007300010E000E000ED00E0044B1A6804280CBF54
:1007400042F0040222F004021A60704710E000E058
:10075000704708B5FFF7FCFF08BD90F83530022B55
:1007600003D080234365012070470268052380F889
:100770003530136823F00103136000207047000038
:100780002DE9F04F85B00B68DFF89C81644A019336
:100790004FF001090023019C09FA03F707EA040658
:1007A000B74240F0AD804C6824F0100ABAF1020F55
:1007B00016D14FEAD30C00EB8C0C03F0070BDCF8DE
:1007C00020504FEA8B0B4FF00F0E0EFA0BFE25EA6E
:1007D0000E0E0D6905FA0BF545EA0E05CCF8205012
:1007E0004FEA430C0325D0F800B005FA0CF5ED43B1
:1007F00004F0030E0BEA050B0EFA0CFE0AF1FF3AA9
:100800004EEA0B0EBAF1010F0095C0F800E015D8C2
:10081000D0F808E005EA0E0ECD6805FA0CFA4AEAAF
:100820000E0EC0F808E0D0F804E02EEA0707C4F383
:10083000001E0EFA03FE4EEA07074760C768009DD8
:100840003D408F6807FA0CF73D43C560E50057D57A
:100850004FF0000BCDF80CB0D8F84470314D47F490
:100860008047C8F84470D8F8447007F4804703976D
:10087000039F23F0030707F1804707F59C3703F038
:10088000030CD7F808A04FEA8C0C4FF00F0E0EFAAD
:100890000CFEA8422AEA0E0E39D005F58065A84262
:1008A00037D005F58065A84235D005F58065A842AA
:1008B00033D005F58065A84214BF0725042505FA45
:1008C0000CF545EA0E05BD601568F74314F4803F4A
:1008D0000CBF3D4035431560556814F4003F0CBF14
:1008E0003D4035435560956814F4801F0CBF3D4072
:1008F00035439560D568A40254BF3D403543D5606B
:100900000133102B7FF447AF05B0BDE8F08F5D4693
:10091000D5E70125D3E70225D1E70325CFE700BFBF
:10092000003C014000000240003802400AB18161F1
:1009300070470904FBE70268536913F480630DD024
:100940006FF4806353610423036420220023036354
:1009500080F83C3080F83D200120704718467047F1
:100960002DE9F843044617469946C1F307488EB26D
:100970002568B8F1010F0CBF6B69AB6936EA030358
:1009800014BF0120002008B9BDE8F8836B695A053F
:1009900012D52B6843F400732B606FF480636B6196
:1009A0000423236420220023236384F83C3084F84A
:1009B0003D200120BDE8F8837B1CD9D04FB900232E
:1009C0002022236384F83C3084F83D200320BDE8D6
:1009D000F883FFF72FFEA0EB09008742C8D2EEE7AD
:1009E0002DE9F843089E044690461F46C1F3074987
:1009F0008DB22368B9F1010F0CBF5B699B6935EAC1
:100A000003030CBF01230023434502D00020BDE8AF
:100A1000F8837B1CEDD05FB900232022236384F888
:100A20003C3084F83D20032084F83E30BDE8F88354
:100A3000FFF700FE801B8742DBD2EDE770B504466E
:100A40000D46164623685B691B0601D5002070BD64
:100A50002046FFF770FFA8B96A1CF3D065B9236C74
:100A600043F02003236420220023236384F83C30D6
:100A700084F83D20032070BDFFF7DCFD801B85421C
:100A8000E0D2ECE7012070BD70B504460D46164675
:100A90002068436913F0400301D0002070BD426913
:100AA000D2060BD56FF0100242612022236484F835
:100AB0003C302363012084F83D2070BD5DB9236C78
:100AC00043F020032364202384F83D30002384F87E
:100AD0003C30032070BDFFF7ADFD801B8542D7D2AF
:100AE000EDE770B504460D46164623685B695B0763
:100AF00001D5002070BD2046FFF71DFFA8B96A1C74
:100B0000F3D065B9236C43F0200323642022002333
:100B1000236384F83C3084F83D20032070BDFFF748
:100B200089FD801B8542E0D2ECE7012070BD00000A
:100B300070B50446002862D090F83D3003F0FF0203
:100B40001BB980F83C2003F023FB22682D4E2E4D6C
:100B5000242384F83D30136823F00103136001F06F
:100B6000F3F963682268B0FBF5F5B34284BF4FF434
:100B700096716943556091BF691C4FF47A75B1FB5A
:100B8000F5F10131B342116221D85B00B0FBF3F003
:100B9000C0F30B03032B98BF0420216AE369D061E3
:100BA0000B431360E16823690B439360A169636998
:100BB0000B43D360136843F001031360002020232C
:100BC000206484F83D30206384F83E0070BDA16845
:100BD00049B903EB4303B0FBF3F0C0F30B0363B17C
:100BE00040F40040D9E719214B43B0FBF3F0C0F3C8
:100BF0000B0313B140F44040CFE70120CDE70120C3
:100C000070BD00BFA086010040420F002DE9FF41EA
:100C100004461F460D469046FFF70CFD94F83D3004
:100C2000202B064604D00225284604B0BDE8F081FA
:100C30000090192301225D492046FFF7D1FE0028CC
:100C4000F1D194F83C30012BEDD0012384F83C30F5
:100C500023681A68D2075EBF1A6842F001021A6060
:100C60001A6822F400621A60212284F83D201022C2
:100C700084F83E2000222264A2F580326785E26279
:100C8000628D2285E26AC4F82480042A04D0012AF5
:100C900002D012F5803F04D11A6842F480721A60C3
:100CA00002E0226B122AF7D000960A9B00224FF036
:100CB00001112046FFF794FE28BB23692268B3F593
:100CC000804F12D105F0FE05156133460A9A384966
:100CD0002046FFF745FE0546A0B9236803905A69F0
:100CE00003929B690393039B50E0EB1103F006030F
:100CF00043F0F00313612F490A9A33462046FFF769
:100D00002FFE48B1236C236C042B4FF0000307D156
:100D100084F83C30012587E72368EDB21D61D4E7F4
:100D200084F83C3003257FE732460A992046FFF7D6
:100D300085FE40B1236C042BF4D12268136843F480
:100D400000731360E6E7616A2068228D4B1C6362C2
:100D50000B780361638D013B9BB263854769531E2A
:100D60009BB27F0723850AD54BB18B1C63624B78FE
:100D70000361638D013B9BB2023A63852285324653
:100D80000A992046FFF7ADFE0028D3D1238D002B12
:100D9000CAD121680A6842F400720A60202284F8ED
:100DA0003D2084F83C3084F83E303DE702001000DE
:100DB00002000100080001002DE9F043044689B05B
:100DC00098460D469146109FFFF734FC94F83D304D
:100DD000202B064604D00225284609B0BDE8F08342
:100DE0000090192301229C492046FFF7F9FD0028B5
:100DF000F1D194F83C30012BEDD0012384F83C3044
:100E000023681A68D2075EBF1A6842F001021A60AE
:100E10001A6822F400621A60222284F83D2010220F
:100E200084F83E2000222264A2F58032A4F82A80B1
:100E3000E262628D2285E26A1968C4F8249041F466
:100E40008061042A196004D0012A02D012F5803F83
:100E500004D11A6842F480721A6002E0226B112AEF
:100E6000F7D000963B4600224FF001112046FFF7D5
:100E7000B7FD00284AD12369B3F5804F236836D1E6
:100E800045F00105EDB21D6133463A4673492046EF
:100E9000FFF766FD0546002837D1228D2368002A1A
:100EA00066D0012A77D11A6822F480621A6004950C
:100EB0005A6904929A690492049A1A6842F4007278
:100EC0001A60DFF8A081238D002B5BD0032B00F28A
:100ED000CB80012B7AD1324639462046FFF7D4FD2C
:100EE000002800F09080236C202B16D13EE04FEAC2
:100EF000E51808F0060848F0F0021A615849334630
:100F00003A462046FFF72CFD48B1236C236C042B96
:100F10004FF0000328D184F83C3001255CE72368BA
:100F20004E49EDB21D613A4633462046FFF718FDA3
:100F300002460028E9D12368079059690791996909
:100F400007910799196841F480711960204600964D
:100F50003B464FF00111FFF743FD0028D6D1226830
:100F600048F0F10313618FE784F83C30032533E741
:100F700003955A6903929A690392039A1A6842F494
:100F800000721A60202384F83D30002384F83E303C
:100F900084F83C3020E7022A1A680DD122F48062DE
:100FA0001A601A6842F400621A6005955A6905923F
:100FB0009B690593059B84E742F480621A6006955D
:100FC0005A6906929B690693069B7AE7022B009664
:100FD0003B464FF000024146204622D1FFF700FD7C
:100FE0000028C3D123681A6842F400721A60626A4A
:100FF0001B69511C61621370238D013B2385638D36
:10100000013B9BB26385636A5A1C62622268126963
:101010001A70238D013B2385638D013B9BB2638551
:1010200051E7FFF7DDFC024600289FD123681968CD
:1010300021F480611960616A1B69481C60620B7051
:10104000238D0096013B2385638D013B9BB2638515
:1010500041463B462046C1E7020010000200010065
:101060000800010004000100324639462046FFF71F
:101070000BFD00287FF437AF636A5A1C6262226856
:1010800012691A70238D2268013B2385638D013B11
:101090009BB2638553695B077FF515AF636A591C83
:1010A0006162B4E72DE9F04F044685B09846894661
:1010B0009246FFF7BFFA94F83D30202B064603D046
:1010C000022005B0BDE8F08F0090192301224A49A3
:1010D0002046FFF785FC0028F2D194F83C30012B24
:1010E000EED0012384F83C302368DFF80CB11A6895
:1010F000D2075EBF1A6842F001021A601A6822F431
:1011000000621A60242384F83D3000253B4B25649F
:1011100009F0FE09E3622268136843F480731360E8
:101120004FF001110096434600222046FFF758FC7D
:1011300008B10320C5E72368C3F81090FFF77AFAD7
:10114000236859695A6994F83D300646C1F3400155
:10115000C2F38022DBB2A02711B90AB9A02B20D19B
:101160002368202784F83D705A6912F0020F1A682C
:1011700042F400721A602AD0002203925A69039244
:101180009B690393039B0096192301221A49204669
:10119000FFF726FC0028CCD184F83D7084F83C0091
:1011A0008FE7B8F1000F0CD184F83D7023685969BE
:1011B0005A6994F83D30C1F34001C2F38022DBB29A
:1011C000CAE7FFF737FA801B8045EDD3EEE76FF4EF
:1011D00080625A6159460096192301222046FFF782
:1011E000FFFB0028A5D10135AA4594D884F83C001E
:1011F00084F83D70012064E7020010000000FFFF4A
:10120000F0B506468BB0002864D00323344680F83E
:10121000B93303F017F954F8100B01F0B5F90FCCFE
:101220006D460FC50FCC0FC594E8030085E8030099
:10123000371D97E80E00306801F066F9002130682C
:1012400001F0A8F900213346324606F110040125C9
:10125000084682F83810D18701310F2982F83950B9
:1012600082F83B0010645064D06402F11C02F0D19B
:101270000022D6F800E0114602F1400083F8F82180
:10128000DA870EEB800001320F2A83F8F91183F818
:10129000FB11C3F80012C3F80412C3F80C1241602A
:1012A00003F11C03E8D10FCC6D460FC50FCC0FC561
:1012B00094E8030085E80300704697E80E0001F00B
:1012C00081F9012386F8B933306801F09EFC0020D3
:1012D0000BB0F0BD0120FBE790F8B833012B10B53F
:1012E00004460CD0012380F8B833006801F081FC7B
:1012F000206801F043F9002084F8B80310BD0220F3
:1013000010BD00002DE9F04FD0F8009087B00446E2
:10131000484601F0B4FC0290002840F02E8120687D
:1013200001F07FFC002800F02881206801F079FCA2
:10133000850748BF2268206842BF536903F0020353
:10134000536101F06EFC10F400250AD0206801F012
:101350006CFC09F530660746A2460025002F40F0D8
:101360000F81206801F05DFC41030BD5206801F07E
:1013700064FC2646039009F510680025039B002BAA
:1013800040F03F81206801F04CFC00280DDAD9F8CC
:10139000043823F00103C9F80438204603F0C8F8E4
:1013A0002268536903F000435361206801F039FC5F
:1013B00006050BD5D9F80838D80702D5204603F022
:1013C0009FF82268536903F400635361206801F0B9
:1013D00028FCC10437D509F500667368206823F03E
:1013E00001037360102101F089F9616809F5106348
:1013F000FF220298884240F092814FF0FF33B361A0
:10140000F36943F00113F361236B002B00F08F812C
:10141000D6F8843043F00B03C6F88430736C43F085
:101420000B037364D9F80038217C206823F4FE6331
:10143000C9F8003804F56F7201F040FC2268536966
:1014400003F480535361206801F0EBFB82041DD547
:10145000206801F018FC2068C36823F47053C3604F
:1014600001F075F9002840F06B812268E0604FF4CC
:1014700000736361D36843F41053D360204603F0D4
:101480002EF82268536903F400535361206801F079
:10149000C8FBC3062BD52268936923F01003936120
:1014A000D9F82060C6F34343022B06F00F0840F042
:1014B000A88147F6F0731E4214D01C2707FB08478B
:1014C000C6F30A163246D7F80412484601F03BFB31
:1014D000D7F804323344C7F80432D7F810321E4428
:1014E000C7F810622268936943F010039361206883
:1014F00001F097FB070707D5204602F0ECFF2268B2
:10150000536903F008035361206801F08AFBC602A7
:1015100008D5E9B2204603F013F82268536903F4B2
:1015200080135361206801F07CFB800208D5E9B28A
:10153000204603F001F82268536903F40013536155
:10154000206801F06EFB410007D5204602F0FCFF49
:101550002268536903F080435361206801F061FB06
:1015600042070AD523685D686B0702D5204602F062
:10157000EFFF23685A6815435D6007B0BDE8F08F40
:10158000F80738D55FFA85FB5946206801F05DFB06
:1015900010F0010F804621D0216901239942B360E8
:1015A0000CD13169DAF80002C1F31201411ACAF80C
:1015B0001012DAF804120844CAF804025946204608
:1015C00002F078FF2169012908D13DB9D4F80C2235
:1015D00022B904F56F72206801F070FB18F0080F53
:1015E00004D0204602F060FF0823B36018F0100F0B
:1015F0001CBF1023B36001357F0820360AF11C0A96
:10160000ACE6039BDA0758D55FFA85FB594620689C
:1016100001F025FBC307074620D5D9F8343801214E
:10162000A94023EA0103C9F834380123C8F8083077
:101630002369012B01BF736C326C9B18736459468C
:10164000204602F040FF2169012907D135B9E36C3A
:1016500023B904F56F72206801F030FB380744BFEE
:101660000823C8F80830F90644BF1023C8F808302A
:101670007A0644BF4023C8F80830BB0744BF0223A2
:10168000C8F808303F0618D523680493F76C336D0B
:10169000FF1A336C9F4228BF1F46049B03F510635B
:1016A00007F1030A03EB45134FEA9A0A0593059BDA
:1016B0009B699BB2534508D82FB3039B5B08013548
:1016C00003931C3608F1200858E6326DF36C934200
:1016D000F2D9002BF0D0376C04989B1A9F4228BF98
:1016E0001F46237C00935A46BBB2716C01F017FA77
:1016F000736C3B447364336D07F1030A3B444FEA58
:101700009A0A3365D3E7049B012203F5006BD3F8F3
:101710003438AA4023EA0203CBF83430CDE70298EC
:101720009A600130C3F808220290203361E67369A1
:1017300043F00B037361336943F00B03336171E6CC
:101740000323E3604023636100F0F8FB344B354A28
:1017500003449342236804D8DA6842F47052DA6092
:101760008CE6314A314902448A4203D8DA6842F4AD
:101770006052F4E7A0F574022D49A2F510528A4296
:1017800003D8DA6842F45052E9E7A0F1837229499C
:10179000A2F5E7428A4203D8DA6842F44052DEE713
:1017A000254A264902448A4203D8DA6842F4305274
:1017B000D5E7234A234902448A4203D8DA6842F42F
:1017C0002052CCE7204A214902448A4203D8DA68F1
:1017D00042F41052C3E7A0F1B7721D49A2F5585266
:1017E0008A4203D8DA6842F40052B8E7194A1A4923
:1017F00002448A42DA6894BF42F4E05242F4C05292
:10180000ADE7062B7FF46EAE082204F56F714846F3
:101810001C2701F098F907FB0847C6F30A165CE697
:10182000405327FFFF340C00401E1BFF3F420F00B8
:101830007F4F12001FD6130060B6E5FE5FE316006F
:1018400000D3CEFE3F771B00C05BB3FEBF912100EB
:101850001F753800E05459FEDF9C410090F8B83302
:10186000012B10B5044609D0012380F8B833006875
:1018700001F0AFF9002084F8B80310BD022010BDBC
:1018800070B54EB2002E04464FF01C0501F07F00EB
:10189000B5BF05FB004105FB0141383101F5FC7185
:1018A000C0B2002EB8BFC880022BCB704FEAD675ED
:1018B00004BF00230B7108704D7094F8B8338A6030
:1018C000012B09D0012384F8B833206800F05AFFB7
:1018D000002084F8B80370BD022070BD4BB2002B0D
:1018E00010B54FF01C02044601F07F00B5BF02FBAB
:1018F000004102FB0141383101F5FC71DB0F08703A
:101900004B7094F8B833012B09D0012384F8B83315
:10191000206800F076FF002084F8B80310BD022094
:1019200010BD38B501F07F051C2404FB050104FB44
:10193000050401F5FC71C4F80C320023C4F804223C
:10194000C4F8103284F8F93184F8F851036900685A
:10195000012B08BFC4F80822DAB21DB901F072F8F1
:10196000002038BD00F0A8FFFAE71C2301F00F01AA
:1019700003FB0101B1F81002704738B501F07F0593
:101980001C2404FB050104FB05043831E364002337
:1019900023650123626484F8393084F83850036980
:1019A0000068012B08BFA264DAB21DB901F04AF841
:1019B000002038BD00F080FFFAE738B54BB2002BAD
:1019C00001F07F054FF01C02B5BF02FB050102FBD1
:1019D0000101383101F5FC710122DB0FEDB28A7093
:1019E0000D704B7090F8B833934204460FD080F8D6
:1019F000B823006801F0B5F82DB904F56F72217CA9
:101A0000206801F05BF9002084F8B80338BD02209B
:101A100038BD38B54BB2002B05464FF01C0201F023
:101A20007F00B5BF02FB005102FB0151383101F5C7
:101A3000FC71DB0F00248C7008704B7095F8B83384
:101A4000012B09D0012385F8B833286801F0A8F8E4
:101A500085F8B843204638BD022038BD006870B50F
:101A6000436A21B943EA02438362002070BD846A5D
:101A7000002503EB14434E1EECB2B44205F1010500
:101A800006DB3F3100EB810043EA02434360ECE7B1
:101A9000403400EB8404646803EB1443ECE7036810
:101AA00000205962704700002DE9F341044618B93F
:101AB000012002B0BDE8F0810368DD0710D423687F
:101AC000980758D423681A0700F19A8023685B07A7
:101AD00000F1B880A269002A40F019810020E8E7EF
:101AE000A64B9A6802F00C02042A07D09A6802F00A
:101AF0000C02082A0AD15B68590207D59F4B1B6864
:101B00009A03DCD56368002BD9D1D1E763689B4D7C
:101B1000B3F5803F11D12B6843F480332B60FEF77F
:101B200089FD964D06462B689B03C8D4FEF782FDBF
:101B3000801B6428F7D90320BBE7B3F5A02F04D19D
:101B40002B6843F480232B60E5E72A6822F4803277
:101B50002A602A6822F480222A60002BDFD1FEF757
:101B600069FD06462B689F03A9D5FEF763FD801B20
:101B70006428F7D9DFE7814B9A6812F00C0F07D081
:101B80009A6802F00C02082A11D15B685E020ED43A
:101B90007A4B1A68950702D5E268012A88D11A683B
:101BA000216922F0F80242EAC1021A608AE7E2687B
:101BB000734BB2B101221A60FEF73CFD6F4D064631
:101BC0002B68980707D52B68226923F0F80343EAAE
:101BD000C2032B6076E7FEF72DFD801B0228EFD9AC
:101BE000A9E71A60FEF726FD644D06462B689907A3
:101BF0007FF568AFFEF71EFD801B0228F6D99AE735
:101C00006269604B7AB101221A60FEF713FD5B4DE9
:101C100006466B6F9F073FF559AFFEF70BFD801B24
:101C20000228F6D987E71A60FEF704FD534D0646F1
:101C30006B6F98077FF54AAFFEF7FCFC801B02280C
:101C4000F6D978E74D4B1A6C12F0805228D10192E8
:101C50001A6C42F080521A641B6C03F0805301939B
:101C6000019B0126484D2B68D9051BD5A368434D20
:101C7000012B27D12B6F43F001032B67FEF7DAFC12
:101C80003E4D074641F288382B6F9B0739D5002E11
:101C90003FF420AF394A136C23F08053136419E7E3
:101CA0000026DFE72B6843F480732B60FEF7C2FC4D
:101CB00007462B68DA05D9D4FEF7BCFCC01B022806
:101CC000F7D938E7052B04D12B6F43F004032B67BA
:101CD000D0E72A6F22F001022A672A6F22F004025D
:101CE0002A67002BCAD1FEF7A5FC41F288380746C7
:101CF0002B6F9807CBD5FEF79DFCC01B4045F7D94D
:101D000019E7FEF797FCC01B4045BDD913E71B4DF3
:101D1000AB6803F00C03082B3FF4CAAE1B4E002344
:101D2000022A336034D1FEF785FC07462B689901FF
:101D30001ED4226AE3691343626A43EA8213E26AA9
:101D400043EA0263A26A0D4C5208013A43EA024395
:101D50006B6001233360FEF76DFC054623689A0132
:101D60003FF5BCAEFEF766FC401B0228F6D9E2E662
:101D7000FEF760FCC01B0228D8D9DCE60038024020
:101D800000004742800E474200700040600047421A
:101D9000FEF750FC04462B689B017FF59FAEFEF7D3
:101DA00049FC001B0228F6D9C5E600BF134908B557
:101DB0008B6803F00C03042B03D0082B03D01048CE
:101DC00008BD104808BD4A684B68496813F4800391
:101DD00014BF0C480A48C1F3881118BF002302F051
:101DE0003F02A1FB0001FEF753FA044B5B68C3F30B
:101DF000014301335B00B0FBF3F008BD0038024043
:101E00000024F40000366E012DE9F0410D46044631
:101E100010B90120BDE8F081444B1A6802F00F02AE
:101E20008A4228D321688F072DD4C80740D43F4B5E
:101E30001A6802F00F02954266D3226851076CD4EB
:101E4000130707D53A4A2169936823F4604343EAAC
:101E5000C1039360FFF7AAFF354B364A9B68C3F373
:101E60000313D35CD840344B18600020FEF798FB76
:101E70000020BDE8F081CAB21A701B6803F00F039E
:101E80009942C6D1CEE72A4B11F0040F1EBF9A68C3
:101E900042F4E0529A600E0742BF9A6842F46042F0
:101EA0009A609A68A06822F0F00202439A60BCE748
:101EB00062681F4B012A1DD11B6813F4003FA8D094
:101EC0001B4EB36823F003031343B360FEF7B2FB6A
:101ED00041F288380746B368626803F00C03B3EB3D
:101EE000820FA4D0FEF7A6FBC01B4045F3D9032008
:101EF000BDE8F081911E01291B6802D813F0007F14
:101F0000DDE713F0020FDAE7EAB21A701B6803F09C
:101F10000F039D427FF47DAF8FE70549E0688B6832
:101F200023F4E05303438B608AE700BF003C024088
:101F3000003802407E7B000858010020014B1868E1
:101F4000704700BF58010020044B054A9B68C3F34B
:101F50008223D35C034A1068D8407047003802409F
:101F60008E7B000858010020044B054A9B68C3F390
:101F70004233D35C034A1068D840704700380240AF
:101F80008E7B0008580100200368DA6822F4907202
:101F9000DA605A6922F001025A61202380F83A304F
:101FA000704700002DE9F0470668C2683369C169CF
:101FB00023F4405313433361044683680069F26895
:101FC0000343606922F41642034322F00C020B43E0
:101FD0001343F3607369A26923F440731343B1F5AB
:101FE000004F73617A4B7CD19E4203D003F580632E
:101FF0009E4244D1FFF7B8FF192505FB00F3606846
:102000004FF064094000B3FBF0F3B3FBF9F34FEA80
:102010000318FFF7A9FF636868435B00B0FBF3F7A1
:10202000FFF7A2FF636868435B00B0FBF3F3B3FB09
:10203000F9F309FB1373DB003233B3FBF9F35B00F5
:1020400003F4F877FFF790FF626868435200B0FB33
:10205000F2FAFFF789FF636868435B00B0FBF3F3B4
:10206000B3FBF9F309FB13A3DB003233B3FBF9F342
:1020700003F0070343443B44B360BDE8F087FFF738
:1020800063FF192505FB00F360684FF06409400009
:10209000B3FBF0F3B3FBF9F34FEA0318FFF754FF78
:1020A000636868435B00B0FBF3F7FFF74DFF6368BD
:1020B00068435B00B0FBF3F3B3FBF9F309FB137365
:1020C000DB003233B3FBF9F35B0003F4F877FFF77F
:1020D0003BFF626868435200B0FBF2FAFFF734FF3F
:1020E000B9E79E4202D03B4B9E4240D1FFF73CFFF6
:1020F000676819254FF0640905FB00F3BF00B3FBC7
:10210000F7F3B3FBF9F31F01FFF72EFF6368684392
:102110009B00B0FBF3F8FFF727FF636868439B0061
:10212000B0FBF3F3B3FBF9F309FB13831B01323369
:10213000B3FBF9F303F0F008FFF716FF626868439A
:102140009200B0FBF2FAFFF70FFF636868439B0051
:10215000B0FBF3F3B3FBF9F309FB13A31B01323319
:10216000B3FBF9F303F00F0343EA080383E7FFF738
:10217000EBFE676819254FF0640905FB00F3BF000B
:10218000B3FBF7F3B3FBF9F31F01FFF7DDFE636861
:1021900068439B00B0FBF3F8FFF7D6FE6368684323
:1021A0009B00B0FBF3F3B3FBF9F309FB13831B01B3
:1021B0003233B3FBF9F303F0F008FFF7C5FE6268B2
:1021C00068439200B0FBF2FAFFF7BEFEBDE700BF26
:1021D0000010014000140140F8B504460E461746B1
:1021E0001D4621680B6836EA030301D10020F8BDC3
:1021F0006B1CF7D095B92368DA6822F4D072DA60E4
:102200005A6922F001025A61202384F8393084F897
:102210003A30002384F838300320F8BDFEF70AFA7C
:10222000C01B8542DDD2E6E710B5044640B390F806
:10223000393003F0FF021BB980F8382002F02CF887
:102240002268242384F83930D36823F40053D36000
:102250002046FFF7A7FE23681A6922F490421A610C
:102260005A6922F02A025A61DA6842F40052DA60AE
:1022700000202023E06384F8393084F83A3010BD20
:10228000012010BD2DE9F0411F4690F83930202B78
:1022900004460D4690464FD100294AD0002A48D026
:1022A00090F83830012B47D0012380F838300023D4
:1022B000C363212380F83930FEF7BCF9A4F82480E9
:1022C0000646A4F82680E38C9BB26BB93B463246A7
:1022D00040212046FFF780FFB0B9202384F8393031
:1022E00084F83800BDE8F081E38C013B9BB2E384C5
:1022F000A368B3F5805F32463B464FF0800120462D
:102300000ED1FFF769FF10B10320BDE8F0812B88E3
:102310002268C3F308035360236943B90235D2E747
:10232000FFF75AFF0028EFD123682A785A60013559
:10233000C9E70120BDE8F0810220BDE8F0817047C7
:10234000704790F83A30222B10B532D1836801697A
:102350000268B3F5805F836A1FD15268C9B9C2F3BE
:10236000080223F8022B8362C48D013CA4B2C48509
:102370006CB90368DA6822F49072DA605A6922F064
:1023800001025A61202380F83A30FFF7D9FF00207C
:1023900010BDD2B223F8012BE5E721B9591C5268D0
:1023A00081621A70E0E75268591C816202F07F0274
:1023B000F7E7022010BD704703681A68D96870B546
:1023C000160704465D6907D196065AD58D0658D57D
:1023D000BDE87040FFF7B5BF15F0010502D111F45B
:1023E000907F4ED0D30705D5CE0542BFE36B43F0B7
:1023F0000103E363500704D51DB1E36B43F002030F
:10240000E363930704D51DB1E36B43F00403E36377
:10241000160704D51DB1E36B43F00803E363E36BD8
:10242000002B66D0950604D5880602D52046FFF716
:1024300088FF23685D69E26B1107204602D415F01E
:1024400040051AD0FFF7A0FD23685A69520610D53F
:102450005A69606B22F040025A6150B1254B036506
:10246000FEF77BF9002844D0606BBDE87040036D37
:1024700018472046FFF79FFF70BDFFF79CFFE563FD
:1024800070BD160627D50D0625D594F83920212ACA
:102490002FD1A268B2F5805F226A17D11188C1F3EB
:1024A00008015960216979B902322262E28C013A4D
:1024B00092B2E284EAB9DA6822F08002DA60DA687D
:1024C00042F04002DA6070BD0132EEE7511C216239
:1024D00012785A60EAE750060BD54A0609D5DA6841
:1024E00022F04002DA60202384F839302046FFF7DA
:1024F00026FF70BDF924000808B5806B0023C38552
:10250000C384FFF758FF08BD84B038B505AD85E832
:102510000E000A9B012B044626D1836B23F48033E3
:102520008363C36823F4840323F04003C360C36858
:1025300023F44013C360119B012B02BFC36843F413
:102540008013C36000F0DEFB089B012B07D1A3685A
:1025500043F00603A360A36843F02003A360BDE833
:102560003840002004B07047C36843F04003C360A4
:1025700000F0C8FB4FF48033A363E5E7836843F0C2
:102580000103836000207047836823F001038360A8
:102590000020704708B5C368012923F0C043C36019
:1025A00008D1C36843F00053C3603220FEF748F8F7
:1025B000002008BD0029F8D1C36843F08043C36000
:1025C000F3E7000084B02DE9F041044607A880E855
:1025D0000E00119E0A9FA36B8846A6B943F4001310
:1025E000A3630023C4F8003ED4F80038C4F80038D0
:1025F0000C9B012B04F500655ED1099939B9204681
:1026000000F09EF807E043F40023A363E9E71946CE
:10261000204600F095F81021204600F06FF8204683
:1026200000F07EF800234FF0FF322B6119466B61FA
:102630004FF09040AA614FF0FF0EEB6104F510627D
:1026400043453BD1002104F5306208464FF0904EDF
:102650004FF0FF0C8B423ED12B69012F23F4807386
:102660002B6108D1234B2B632B6B43F4803343F056
:1026700003032B632B6B0023A3616FF08043636123
:102680001FB9A36943F01003A361A2691A4B134356
:10269000A3610D9B1BB1A36943F00803A361012E45
:1026A00001BFA36943F0804343F00403A361BDE885
:1026B000F041002004B070470321A0E7D2F800C029
:1026C000BCF1000FB4BF1060116001331161C2F89A
:1026D00008E02032B4E7D2F80080B8F1000FB4BFB0
:1026E000C2F800E0106001311061C2F808C0203269
:1026F000B0E700BF0001800000383C80890141F054
:102700002001064A0161013A05D0036913F0200354
:10271000F9D1184670470320704700BF410D0300F0
:102720001023064A0361013A05D0036913F0100330
:10273000F9D1184670470320704700BF410D0300D0
:10274000D0F800381943C0F800180020704700F591
:102750000062D0F8080810F0060012D0936803F069
:102760000603022B0CD0936803F00603062B07D058
:10277000936803F00603042B14BF00200220704767
:102780000320704730B54B780C78D0F81C5800F512
:102790000062012B1BD1A3409BB22B4300F51060BC
:1027A000D36100EB44131A6812040ED48A68C87807
:1027B0001D68C2F30A0242F0805242F4004242EA2B
:1027C000804040EA845028431860002030BD4FF418
:1027D0008033A34000F530602B4300EB4410D361FD
:1027E00003681B04F1D48B68C9780268C3F30A0339
:1027F00043F0805343F4004343EA814313430360AF
:10280000E3E700F001B8000070B54B78012B0E46ED
:10281000054609784FF0200326D100F5106213FB1E
:1028200001231A6822F400421A604FF000621A6015
:102830004FF080421A601F4A013A01D1032070BD57
:102840009C6814F08044F7D110212846FFF756FF0A
:102850003178D5F81C2801238B409BB222EA030370
:10286000C5F81C38204670BD00F5306213FB01230B
:102870001A6822F400421A604FF000621A604FF0AA
:1028800080421A600B4A013AD8D0986810F01000C4
:10289000F9D1D5F8043843F48063C5F80438D5F885
:1028A0001C384FF480328A4023EA0203C5F81C38F2
:1028B00070BD00BF410D0300F7B54B780C78012BBC
:1028C0004B6977D1202600F5106516FB0454266964
:1028D000002B38D126F0FF5626F4C0162661266953
:1028E00046F4002626612669F60CF6042661012AC4
:1028F00050D10C780E6905EB44146661CE78012E38
:102900000FD1D0F808480F7814F4807F4FF02004DE
:1029100014FB075427680CBF47F0005747F0805757
:1029200027600F7805EB4715012E2C6844F004440E
:102930002C6005D100929BB23A46C96800F0EFF8CE
:10294000002003B0F0BDF60CF604266126698F68FE
:1029500026F0FF5626F4C0162661DE19013EB6FBAE
:10296000F7F7374ED4F810E006EAC74646EA0E06F7
:1029700026612769C3F312063E432661CE78012EF5
:102980005AD1266926F0C0462661266946F00056CF
:102990002661ACE7CE78012EB3D0002BAED091F8F3
:1029A00000E0D0F83478012404FA0EF43C43C0F877
:1029B0003448A3E700F5306505EB44142569ED0CB8
:1029C000ED042561256925F0FF5525F4C015256125
:1029D0008D68FBB92369C5F312051D432561236981
:1029E00043F400232361012A04BFCB686361CB78E1
:1029F000012B0AD1D0F8083813F4807F23680CBF6C
:102A000043F0005343F080532360236843F00443B2
:102A1000236095E70A4E27692B44013BB3FBF5F38E
:102A200006EAC3463E4326619BB226695D43C5F371
:102A3000120535432561D6E7012AAED159E700BF1B
:102A40000000F81F4B78012B70B50B784D6943D10E
:102A5000202400F5106614FB03631C69CDB924F033
:102A6000FF5424F4C0141C611C6944F400241C614C
:102A70001C69E40CE4041C610D7806EB4513012A83
:102A80001C6844F004441C601BD10A695A61002090
:102A900070BDE40CE4041C611C6924F0FF5424F4B0
:102AA000C0141C618C68A54288BF4C611C6944F449
:102AB00000241C614C691D69C4F312042C431C6181
:102AC000DAE74B69002BE2D0D0F834280123AB4081
:102AD0001343C0F83438DAE700F5306000EB4310F8
:102AE0000369DB0CDB040361036923F0FF5323F468
:102AF000C01303618B6805B14B61046944F4002481
:102B000004610469C3F312032343012A036104BF70
:102B1000CB684361036843F004430360B7E710B533
:102B20009DF808404CB9033300F5805023F00303AF
:102B300000EB02320B44994201D1002010BD51F844
:102B4000040B1060F7E7033222F003020A4400F599
:102B50008050914201D108467047036841F8043B18
:102B6000F7E74B780A78012B4FF020030BD100F5E3
:102B7000106013FB02000368002B0BDB036823F0DB
:102B80008043036006E000F5306013FB0200036839
:102B9000002BF3DA036843F400130360002070474E
:102BA0004B780A78012B0CBF00F5106000F53060FF
:102BB000202313FB0200036823F400130360CB7887
:102BC000023B012B9EBF036843F08053036000204B
:102BD0007047D0F8003823F4FE63C0F80038D0F80E
:102BE0000038090101F4FE611943C0F80018002003
:102BF000704708B5D0F8043823F00203C0F8043851
:102C00000320FDF71DFD002008BD08B5D0F80438ED
:102C100043F00203C0F804380320FDF711FD002043
:102C200008BD4269806910407047D0F8183800F537
:102C30000060C0691840000C7047D0F8183800F5E3
:102C40000060C069184080B2704700F5306303EB44
:102C5000411100F500608A6840691040704710B566
:102C6000D0F81048D0F8343800EB4110CB4000F5D4
:102C70001060DB018068DBB22343184010BD40695F
:102C800000F001007047D0F8003923F4FF6323F00F
:102C90000703C0F8003900F500639A6802F00602E5
:102CA000042A02BFD0F8002942F00302C0F800292C
:102CB0005A6842F480725A600020704710B50024B0
:102CC000C0F8104BD0F8104B44F40024C0F8104B5F
:102CD000D0F8104B44F01804C0F8104BD0F8104B4B
:102CE000012900F5306344F0C04408BF4FF0802351
:102CF000C0F8104B04BFC0F8142BC0F8003B0020F4
:102D000010BD00000A4B013B01D10320704702694E
:102D1000002AF8DA0369064A43F001030361013A25
:102D2000F3D0036913F00103F9D11846704700BFCF
:102D3000410D0300D0F818321BB10020C3F8140174
:102D4000704702207047D0F81C3210B5D0F81842F6
:102D50005BB194F80001FF2807D09B6894F801212B
:102D600021469847FF2384F80031002010BD000061
:102D70004323038000487047400000204323038022
:102D800000487047840000204323038000487047B8
:102D9000D40000200A23038000487047C8000020A8
:102DA00038B50546D0F8184201F090FCD5F8183235
:102DB000C4F80C014BB1D5F81C32D4F80401DB681F
:102DC00004F586719847002038BD022038BD000008
:102DD000F8B50F7817F0600306460C4623D0202B79
:102DE00019D1CA884B78C2B13906D0F818520BD520
:102DF000D0F81C1218468F682946B847E288294641
:102E0000304600F084FB06E085F8003185F80121AA
:102E1000294600F091FB0020F8BDD0F81C02846820
:102E20001846A047F7E74B780A2BF4D10122014955
:102E3000E7E700BF4002002010B58121044601F001
:102E4000DDFB0121204601F0D9FB8221204601F063
:102E5000D5FBD4F8183253B1D4F81C325B689847CC
:102E6000D4F8180204F0E4F80023C4F81832002063
:102E700010BDF8B5037C04467BBB4FF4807302227F
:102E8000812101F0ABFB4FF4807302220121204627
:102E900001F0A4FB082303228221204601F09EFBBF
:102EA0004FF48E7004F0BCF80646C4F8180220B344
:102EB000D4F81C321B689847277C0025C6F81451AB
:102EC000C6F8185187B94FF48073D6F80421012150
:102ED000204601F0EDFB3846F8BD40230222812157
:102EE00001F07CFB4023D0E74023D6F804210121E8
:102EF000204601F0DDFB2846F8BD0120F8BD19B1E0
:102F0000C0F81C120020704702207047D0F8183219
:102F10000020C3F80811C3F810217047D0F8183208
:102F20000020C3F804117047D0F8182210B562B120
:102F3000047C44B94FF48073D2F80421012101F0DC
:102F4000B7FB002010BD4023F6E7022010BD08B5F6
:102F500080B1D0F8143213B10023C0F8143209B193
:102F6000C0F81012012380F8FC31027001F0F4FA6D
:102F7000002008BD022008BD19B1C0F814120020BD
:102F800070470220704708B501F01AFB002008BD09
:102F900008B5D0F814320BB9022008BD1B68984759
:102FA0000028F9D108BD08B5D0F814325B689847FD
:102FB000002008BD38B5044600F50275284600F02B
:102FC00076FA012394F80812C4F8F431B4F80E32FA
:102FD000C4F8F83101F01F03012B0ED007D3022BE8
:102FE00010D001F08001204601F016FB03E02946D5
:102FF000204600F0E7F8002038BD2946204600F0C2
:10300000DBF9F8E72946204600F0EEF9F3E738B59A
:103010000446154611BBD0F8F431032B0FD1D0F87C
:103020000C31D0F8102193420BD99B1A9A4228BF39
:103030001A46C0F80C3192B2294600F08CFA0020F2
:1030400038BDD0F814321B6923B190F8FC21032A53
:1030500000D19847204600F086FAF0E7D0F8143205
:103060009B69002BEBD090F8FC21032AE7D198470D
:10307000E5E770B5134604460E4600293DD1D0F869
:10308000F421022A0FD1C569026A954214D9AA1AFD
:10309000C261194692B200F047FA33461A46194601
:1030A000204601F005FB94F80032012B02D10023E9
:1030B00084F80032002070BD8369B3FBF2F502FB97
:1030C000153565B99A420AD8D0F8F821934206D24C
:1030D0002A4600F029FAC4F8F8512B46DEE7D4F866
:1030E0001432DB682BB194F8FC21032A01D120466D
:1030F0009847204600F042FAD5E7D0F814325B69D1
:10310000002BD7D090F8FC21032AD3D19847D1E7E0
:1031100038B50022044611464025402301F05EFAEE
:103120002B46C4F8105100228021204601F056FAA7
:10313000012384F8FC31D4F8183225622BB1D4F87D
:10314000143221795B6820469847002038BD01740D
:103150000020704790F8FC3180F8FD31042380F89E
:10316000FC310020704790F8FD3180F8FC310020E0
:10317000704708B590F8FC21032A04D1D0F8143226
:10318000DB6903B19847002008BD0020704700208C
:1031900070470020704708B5012280F8FC21D0F864
:1031A0001422017952689047002008BD10B5802193
:1031B000044601F031FA20460021BDE8104001F03C
:1031C0002BBA000037B54B7804460D46092B79D849
:1031D000DFE813F0C900E5007800D90078006D0041
:1031E0000A007800B9008D004B881A0A013A062AB5
:1031F00068D8DFE802F0041C296767495200D0F85C
:1032000010321B68207C0DF106019847BDF806209E
:10321000002A67D0EB88002B64D09A4228BF1A4658
:10322000ADF806200146204600F071F95AE0027C14
:10323000D0F8143232B99B6A0DF106009847022388
:103240004370E3E7DB6AF7E7DBB2052B3AD8DFE848
:1032500003F003070B0F1317D0F810325B68D1E7A8
:10326000D0F810329B68CDE7D0F81032DB68C9E7A0
:10327000D0F810321B69C5E7D0F810325B69C1E79E
:10328000D0F810329B69BDE7037CDBB9D0F814326B
:103290000DF106005B6B9847B8E7037C93B9D0F853
:1032A00014320DF106001B6B98470723C8E78B8883
:1032B00043B9CB8833B990F8FC318D78032B05F0F6
:1032C0007F0503D12046FFF771FF0BE080F8FE5128
:1032D000294601F0D1F9204600F045F92DB102232D
:1032E00084F8FC31002003B030BD0123F8E7897871
:1032F000304D01292970E5D890F8FC31022B0CD013
:10330000032BDFD1B1B9022380F8FC314160FFF714
:103310004AFE204600F027F9E4E70029F9D0012110
:103320000323416080F8FC312046FFF731FE02287C
:10333000EFD1C7E741680129EBD0C9B2FFF733FEEF
:1033400029786160F0E7CA88012ABBD190F8FC3186
:10335000022B03D0032BB5D1011D64E701460023E6
:1033600041F8083F5FE790F8FC31023B012BA9D8F8
:103370000123C360D0F804320BB10323C3600222DF
:1033800004F10C014FE74B88012BABD1C4F8043298
:10339000D4F8143229469B6820469847B9E790F83C
:1033A000FC31023B012B8DD84B88012B9AD1002395
:1033B000ECE700BF4102002038B590F8FC31032B48
:1033C00004460D460DD10B79012B0AD8D0F81432E2
:1033D0009B689847EB8813B9204600F0C4F800209A
:1033E00038BDFFF7E3FEFAE770B50A788E8802F081
:1033F0006002202A04460D46F3B205D1D0F81432FB
:103400009B689847002070BD4A78012A1CD02AD3B7
:10341000032AF7D190F8FC21022A40D0032A02D0D7
:10342000FFF7C4FEEEE74A8822B95E0602D01946CD
:1034300001F0F2F8D4F8143229469B6820469847E8
:10344000204600F090F8DDE790F8FC21022A26D013
:10345000032AE5D14A88002AD4D15906F0D019466A
:1034600001F0E8F8E6E790F8FC21022A17D0032AD9
:10347000D6D103F07F0516F0800F00EB0515194635
:1034800014BF143505F5827501F0E2F868B1012327
:103490002B6002222946204600F039F8B2E75A068E
:1034A000B0D0194601F0B8F8ACE72860F1E70B7826
:1034B00003704B784370CA788B7803EB0223438008
:1034C0004A790B7903EB02238380CA798B7903EB6A
:1034D0000223C380704730B588B105462B1A15F812
:1034E000014BDBB2002CF9D15B00023313800B706F
:1034F00003234B700138022310F8015F05B930BD7A
:103500005A1CD2B2CD540233DBB28C54F4E710B55E
:1035100013460222C0F8F42183610A46C3610021E8
:1035200001F0B8F8002010BD08B513460A46002186
:1035300001F0B0F8002008BD10B513460322C0F812
:10354000F421C0F808310A46C0F80C31002101F01E
:10355000AFF8002010BD08B513460A46002101F05F
:10356000A7F8002008BD08B50423C0F8F4310023F3
:103570001A46194601F08EF8002008BD08B505234B
:10358000C0F8F43100231A46194601F091F80020E2
:1035900008BD000000224FF400410148FDF7C6B904
:1035A0000000024010B5254C01224FF40041204696
:1035B000FDF7BCF900BF00BF00BF00BF00BF00BFE8
:1035C00000BF00224FF400412046FDF7AFF900BFD5
:1035D00000BF00BF00BF00BF00BF00BF00BF00BFF3
:1035E00000BF00BF00BF00BF00BF00BF00BF00BFE3
:1035F00000BF00BF00BF00BF00BF00BF00BF00BFD3
:1036000000BF00BF00BF00BF00BF00BF00BF00BFC2
:1036100000BF00BF00BF00BF00BF00BF00BF00BFB2
:1036200000BF00BF00BF00BF00BF00BF00BF00BFA2
:1036300000BF00BF00BF00BF10BD00BF00000240C0
:1036400010B52C4C01224FF400412046FDF76EF9D5
:1036500000BF00BF00BF00BF00BF00BF00BF00BF72
:1036600000BF00BF00BF00BF00BF00BF00BF00BF62
:1036700000BF00BF00BF00BF00BF00BF00BF00BF52
:1036800000BF00BF00BF00BF00BF00BF00BF00BF42
:1036900000BF00BF00BF00BF00BF00BF00BF00BF32
:1036A00000224FF400412046FDF740F900BF00BF63
:1036B00000BF00BF00BF00BF00BF00BF00BF00BF12
:1036C00000BF00BF00BF00BF00BF00BF00BF00BF02
:1036D00000BF00BF00BF00BF00BF00BF00BF00BFF2
:1036E00000BF00BF00BF00BF00BF00BF00BF00BFE2
:1036F00000BF10BD0000024038B50546072445FA5A
:1037000004F3DB0705D5FFF79BFF14F1FF34F6D276
:1037100038BDFFF747FFF8E710B50446C0F30720B0
:10372000FFF7EAFFC4F30740FFF7E6FFE0B2BDE8AA
:103730001040FFF7E1BF70B506460D460024AC42CD
:1037400003D1BDE87040FFF725BF56F82400FFF70E
:10375000E3FF0134F3E700002DE9F041BE4A4FF4E6
:103760006A7505FB00230728904605FB0085D4BF3A
:10377000BA4ABB4AC3F8A023522194B083F89813E5
:103780000023024685F8A433B649064601A803F093
:1037900027FD01A8FCF724FD4FF6FF7382B201A9B3
:1037A000B148FEF76FFD284601F066F80246F0B119
:1037B000AE4B05AC03F1200718685968254603C5D0
:1037C0000833BB422C46F7D11868286030328DF898
:1037D000332030364FF6FF73232205A9A2488DF817
:1037E0003560FEF74FFD012014B0BDE8F081A04B1D
:1037F00005AA03F1180718685968144603C408336A
:10380000BB422246F7D118689B882060F7B2A3809C
:1038100007F130042A377F004FF6FF731D2205A9F8
:10382000FFB2E4B290488DF82F40FEF72BFD3946E9
:10383000284601F01DF84FF46A7303FB0683024625
:1038400083F89873D8B18B4B05AD03F12007186846
:1038500059682E4603C60833BB423546F7D118686F
:10386000306030328DF833204FF6FF73232205A9E4
:103870007D488DF83540FEF705FD0220B4E77E4B0C
:1038800005AA03F1180E18685968174603C70833CC
:1038900073453A46F7D118689B883860BB801D2273
:1038A0004FF6FF7305A970488DF82F40FEF7EAFC2C
:1038B000284601F08EF90246D8B1704B05AD03F1F0
:1038C0001807186859682E4603C60833BB423546A8
:1038D000F7D11868306030328DF82B204FF6FF7327
:1038E0001B2205A960488DF82D40FEF7CBFC032074
:1038F0007AE7634B05AA03F1100E1868596817465A
:1039000003C7083373453A46F7D118689B88386077
:10391000BB8015224FF6FF7305A953488DF8274049
:10392000FEF7B0FC284601F08FF80746E8B1554B8A
:1039300005AA03F1180618685968154603C5083327
:10394000B3422A46F7D118689B882860AB8030378D
:103950004FF6FF731D2205A943488DF82F408DF8BF
:103960002D70FEF78FFC04203EE7474B05AF03F1B7
:10397000180E186859683A4603C20833734517464B
:10398000F7D14FF6FF73172205A937488DF8294064
:10399000FEF778FC0321284600F072FF0746E8B1E5
:1039A0003A4B05AA03F1200618685968154603C565
:1039B0000833B3422A46F7D119889B782980AB7027
:1039C00030374FF6FF73222205A927488DF834407F
:1039D0008DF83270FEF756FC052005E72C4B05AA42
:1039E00003F1180E18685968174603C70833734562
:1039F0003A46F7D118681B7938603B711C224FF6A4
:103A0000FF7305A918488DF82E40FEF73BFC44F6DD
:103A10002061284600F070FF024600283CD01D4B74
:103A200005AD03F13807186859682E4603C60833F8
:103A3000BB423546F7D11B88338030328DF84920A0
:103A40004FF6FF73392205A907488DF84B40FEF762
:103A500019FC0620C8E600BF44040020B402002080
:103A600008030020E8780008C4030020F478000868
:103A700018790008367900085A7900087879000822
:103A800094790008AA790008C8790008E07900084C
:103A9000037A0008207A00084A4B05AA03F1300E89
:103AA00018685968174603C7083373453A46F7D173
:103AB0001868386033224FF6FF7305A942488DF825
:103AC0004540FEF7DFFB1921284601F035F8024694
:103AD000D8B13E4B05AD03F13807186859682E463A
:103AE00003C60833BB423546F7D11B7833703032FA
:103AF0008DF848204FF6FF73382205A932488DF81B
:103B00004A40FEF7BFFB07206EE6314B05AA03F1E2
:103B1000300E18685968174603C7083373453A468C
:103B2000F7D119889B783980BB7032224FF6FF732A
:103B300005A925488DF84440FEF7A4FB284601F06E
:103B40009DF80246D8B1234B05AD03F12007186854
:103B500059682E4603C60833BB423546F7D118686C
:103B6000306030328DF833204FF6FF73232205A9E1
:103B700015488DF83540FEF785FB082034E6164BD6
:103B800005AA03F1180718685968154603C50833D4
:103B9000BB422A46F7D118689B882860AB801D225B
:103BA0004FF6FF7305A908488DF82F40FEF76AFB12
:103BB0004FF46A7303FB0686012386F8A4330020C2
:103BC00012E600BF5A7A0008C40300208E7A00086B
:103BD000C77A0008FA7A00081E7B00082DE9F04138
:103BE000214E224DDFF88C8094B007460224022338
:103BF0001A46A1B23846FDF755FA40B34FF6FF73A7
:103C00000122414628460234FEF73CFBB4F5807F92
:103C1000EDD1174B6A4603F108066D4618685968DE
:103C2000144603C40833B3422246F7D118689B8870
:103C30002060A3802846FCF7D3FA4FF6FF7382B2C8
:103C400029460A48FEF71EFB14B0BDE8F081224663
:103C50003146684603F0C4FA6846FCF7C1FA4FF6ED
:103C6000FF7382B26946CDE76A7B0008C403002077
:103C7000707B0008687B000810B4124B124A1C7855
:103C800012491348DCB91368A3B90368CB60136801
:103C900051F8234004604FF47F4041F82300013382
:103CA000032BC8BF0023042108485DF8044B1360B0
:103CB000FFF741BD013B046841F82340E7E70024DA
:103CC0001C70E4E71701002048020020B403002024
:103CD0004402002030B595B0274B002101911A6CA9
:103CE00042F080521A641B6C03F080530193019BD5
:103CF000224B02911A6842F440421A601B6803F496
:103D000040430293029B012308934FF480330993AD
:103D10004FF480030F930C23022410930425602397
:103D200008A80E94119312941395FDF7BDFE00B1EF
:103D3000FEE70F23039305904FF480530790032170
:103D400003A804940693FEF75FF8044600B1FEE76B
:103D5000FEF7F4F84FF47A73B0FBF3F0FCF7D6FCFF
:103D60002846FCF7E9FC224621464FF0FF30FCF7DD
:103D70008DFC15B030BD00BF00380240007000401F
:103D80002DE9F047A2B00024FCF72EFCFFF7A2FFBC
:103D9000644B02941A6B6448644F42F004021A6345
:103DA0001A6B02F004020292029A03941A6B42F018
:103DB00080021A631A6B02F080020392039A049441
:103DC0001A6B42F001021A631A6B02F001020492AC
:103DD000049A05941A6B42F002021A631A6B02F0FD
:103DE00002020592059A06941A6B42F008021A63C1
:103DF0001B6B03F008030693224641F20F01069B5A
:103E0000FCF794FD224648F2F0014948FCF78EFD8C
:103E100022464FF480714748FCF788FD4EF2F013BC
:103E20000EA941480E9301250F941094FCF7A8FCAD
:103E300041F20F030EA93C480E930F951094119474
:103E4000FCF79EFC03230EA939480E930F9410949F
:103E5000FCF796FC48F2F0030EA935480E930F9537
:103E600010941194FCF78CFC4CF207230EA93148F6
:103E70000E930F9410940426FCF782FC0EA92E4892
:103E80000E960F941094FCF77BFC4FF48073294836
:103E90000E930EA90F9510941194FCF771FC27480E
:103EA000274B84604FF4804580E88800C46005613A
:103EB00044618461C4610462FCF73AFE00B1FEE72C
:103EC000204B214A9860D86058619861D861186287
:103ED000184683E884001D61FCF72AFE00B1FEE766
:103EE0001A4B1B4A98604FF4E135D86018610C24D6
:103EF0009861D861184683E824005C61FEF794F964
:103F000000B1FEE7134B144A9860D86018619861BD
:103F1000D86118465C6183E82400FEF785F9044601
:103F2000E0B1FEE70038024000080240801A0600B7
:103F30000000024000040240000C0240B4020020D5
:103F4000005400400803002000580040C403002033
:103F50000010014004040020004400405B4D00F0CC
:103F60002FFA22460F215A48FCF7E0FC2246F021A6
:103F70005848FCF7DBFCFF23314628462B606B607A
:103F8000AB60EB60FFF7D7FB4FF47A70FCF758FBA0
:103F9000514E2F4606EBC4030122998856F834008F
:103FA000FCF7C4FC0A20FCF74BFB04F10800FFF708
:103FB000D3FB6310002870D04FF47F0245F8232014
:103FC00004213846FFF7B7FB0134082CE2D14348FF
:103FD000DFF82091424EDFF820A1FFF7FFFD4148B6
:103FE000FFF7FCFDFCF726FB804600273E4C002532
:103FF00000238DF8073094F8A4331BB30DF10701AB
:10400000204600F0B6FE024600284ED19DF807304B
:10401000C3B107A9204600F0AFFE204600F065FEC0
:10402000BDF934302A4651460EA803F0D9F80EA83F
:10403000FCF7D6F84FF6FF7382B20EA93046FEF7B2
:1040400021F901370135102D04F56A74D0D1274CC0
:10405000FCF7F0FA2368C01A632804D9FCF7EAFADF
:104060002060FFF709FEFCF7E5FAA0EB0800B0F5C9
:104070007A7FBBD3FCF7DEFA3A461D4980460EA88C
:1040800003F0AEF80EA8FCF7ABF84FF6FF7382B260
:104090000EA93046FEF7F6F8A7E755F82320B2F54B
:1040A0007F0F91D045F823008AE72B4649460EA89A
:1040B00003F096F80EA8FCF793F84FF6FF7382B260
:1040C0000EA93046FEF7DEF8BCE700BFB4030020BF
:1040D000000802400000024018010020B402002045
:1040E000C403002008030020440400204C020020E8
:1040F0005F7B0008437B00083C7B0008FEE7000074
:1041000013B5224B002400945A6C42F480425A6446
:104110005A6C02F480420092009A01941A6C42F0A8
:1041200080521A641B6C03F0805301930320019B9F
:10413000FCF79AFA224621466FF00B00FCF7A6FA2C
:10414000224621466FF00A00FCF7A0FA22462146DB
:104150006FF00900FCF79AFA224621466FF004003E
:10416000FCF794FA224621466FF00300FCF78EFA22
:10417000224621466FF00100FCF788FA22462146CC
:104180004FF0FF30FCF782FA02B010BD0038024059
:10419000F0B50368394A934289B01BD1C023039319
:1041A00012230493012305930323069303A90423F5
:1041B00033480793FCF7E4FA00230093314B1A6C61
:1041C00042F400121A641B6C03F400130093009B6A
:1041D00009B0F0BD2C4A934226D14FF4806303937B
:1041E000122604230125032403A9254807930496D6
:1041F00005950694FCF7C4FA0823039303A9092341
:104200001F480793049605950694FCF7B9FA002316
:1042100001931C4B1A6C42F480021A641B6C03F469
:1042200080030193019BD3E7184A9342D0D14FF406
:104230000073122701260325042403A914480393BD
:104240000497059606950794FCF79AFA4FF4807345
:1042500003A9104803930497059606950794FCF765
:104260008FFA00230293074B1A6C42F400021A647F
:104270001B6C03F400030293029BA9E70054004067
:10428000000402400038024000580040005C00403A
:10429000000802400000024010B50368234A934220
:1042A00088B024D10024224B0194596C214841F05C
:1042B000100159645B6C03F010030193019B4FF4F0
:1042C000C0630393022304930123059303230693FE
:1042D00003A907230793FCF753FA2520224621461A
:1042E000FCF7D4F92520FCF705FA08B010BD124AF6
:1042F0009342FAD1002302930D4B0E481A6C42F4FC
:1043000000321A641B6C03F400330293029B0C23EB
:10431000039302230493012305930323069303A924
:1043200007230793FCF72CFADFE700BF00100140DA
:104330000038024000000240004400407047FEE7A1
:10434000FEE7FEE7FEE770477047704708B5FCF7E9
:1043500065F9BDE80840FCF7FCB900000148FEF72C
:104360002BB800BFC40300200148FCF7CBBF00BF3F
:10437000E84200200F49D1F8883043F47003C1F8B7
:1043800088300D4B1A68002042F001021A609860D4
:104390001A6822F0847222F480321A60074A5A6046
:1043A0001A6822F480221A60D8604FF000638B6094
:1043B000704700BF00ED00E00038024010300024DC
:1043C00010B5094C094900222046FEF7C0FD0849F6
:1043D0002046FEF7D1FD20460649FEF790FD204617
:1043E000BDE81040FEF7CFBDC43E00206C010020A8
:1043F000080000205C01002000207047002070476A
:1044000010B5054C01462046FEF788FD2046FEF714
:104410008BFD002010BD00BFC43E002010B5064C2F
:10442000064900222046FEF771FD05492046FEF7A9
:1044300075FD002010BD00BFC43E0020E8410020F3
:10444000E840002010B50368B3F1A04F86B025D135
:104450004FF4C053019302230293032300240493D7
:1044600001A90A230E4805930394FCF789F90D4B23
:104470005A6B42F080025A6300945A6C42F48042B4
:104480005A645B6C03F48043009343202246214628
:10449000009BFCF7FBF84320FCF72CF906B010BD9D
:1044A000000002400038024000F56F71D0F8EC03C4
:1044B000FEF780BD1C2303FB0103D0F8EC03D3F807
:1044C0000422FEF7A4BD1C2303FB0103D0F8EC0378
:1044D0005A6CFEF7CEBDD0F8EC03FEF74ABE10B51D
:1044E000C1680446003118BF0121D0F8EC03FEF783
:1044F0002EFED4F8EC03BDE81040FEF709BE000024
:1045000010B50446D0F8EC03FEF724FE2268D2F87A
:10451000003E43F00103C2F8003E236A23B1034A80
:10452000136943F00603136110BD00BF00ED00E006
:10453000D0F8EC03FEF717BED0F8EC03FEF727BE69
:10454000D0F8EC03FEF721BED0F8EC03FEF721BE55
:10455000D0F8EC03FEF71FBE08B5027852BB164B2D
:104560000421C3F8EC03C0F820324FF0A04083E8E8
:10457000030002211846D9601A615A619961DA6113
:104580001A625A62DA621A63FCF73AFE20B14FF4FB
:10459000A5710A48FFF7B2FD80210748FDF77FFAB1
:1045A000402200210448FDF759FA802201210248E7
:1045B000FDF754FA002008BDE84200209A7B00086D
:1045C00008B5D0F82002FCF787FE03289ABF024BFB
:1045D000185C022008BD00BF967B000810B51C4681
:1045E000D0F8200213462246FDF74AF903289ABF65
:1045F000014B185C022010BD967B000808B5D0F86E
:104600002002FDF76BF903289ABF024B185C0220C9
:1046100008BD00BF967B000808B5D0F82002FDF762
:10462000CCF903289ABF024B185C022008BD00BFDA
:10463000967B000808B5D0F82002FDF7EAF90328B8
:104640009ABF024B185C022008BD00BF967B000891
:1046500011F0800FD0F820324FF01C021BBF01F088
:104660007F0102FB013102FB013191F83A0008BFE2
:1046700091F8FA017047000008B5D0F82002FDF764
:10468000EDF803289ABF024B185C022008BD00BF5A
:10469000967B000808B5D0F82002FDF76EF90328D4
:1046A0009ABF024B185C022008BD00BF967B000831
:1046B00008B5D0F82002FDF734F903289ABF024B61
:1046C000185C022008BD00BF967B000808B5D0F832
:1046D0002002FDF74AF908BD12230B8000487047FD
:1046E0008801002004230B80004870479C010020B3
:1046F00010B5044C04480A462146FEF7ECFE20465D
:1047000010BD00BFD8460020C67B000810B5044C81
:1047100004480A462146FEF7DEFE204610BD00BFD3
:10472000D8460020D97B000810B5044C04480A463E
:104730002146FEF7D0FE204610BD00BFD84600201F
:10474000EF7B000810B5044C04480A462146FEF7EA
:10475000C2FE204610BD00BFD8460020AD7B000839
:1047600010B5044C04480A462146FEF7B4FE204624
:1047700010BD00BFD8460020B87B00082DE9F041ED
:10478000032988B005460C461F4630D0082914BFBF
:104790002026402602238DF8143001238DF8153091
:1047A00003238DF8163007238DF8183006238DF873
:1047B000193008238DF81A3024238DF81C30252356
:1047C0008DF81D30012A4FF026038DF81E3010D0D1
:1047D000022A0CBF01230223042C0CD0082C2DD05C
:1047E000032C30D108AA134413F8088C07E04026A4
:1047F000D0E70023F0E708AA134413F80C8C07ABAA
:10480000019306AB00930DF1120205AB4146284619
:1048100000F055FC78B9079B0193069B0093BDF807
:1048200012200297059B4146284600F081FC10B9F2
:10483000AE7085F87C4308B0BDE8F08108AA134447
:1048400013F8048CDBE76FF00700F4E710B521B133
:10485000012908D06FF0030010BDC2F38F3100F0C2
:104860007DFD002010BDC2F34F2100F080FDF8E770
:104870004A08012102F0F6BA4FF4FA7102F080BA48
:104880002DE9FF414B1EDBB2022B04460E4690F889
:104890007C732DD818BF0D4603A908BF032500F06F
:1048A000A1FB10BB6B4601AA02A92046D4F81480D4
:1048B00000F03BFBC8B943462A4639462046FFF77D
:1048C0005DFF90B984F87E5384F87F5384F87D634C
:1048D000009B019A0299204600F00FFB28B9009B2B
:1048E000236103A9204600F06CFB04B0BDE8F08111
:1048F0006FF00300F9E7000070B53E4B994286B0B7
:1049000004460D463DD96FF0030006B070BD9DF81A
:104910000630012B64D09DF807303748012B41F257
:1049200088324FF0010318BF4FF47A729542EAD9EA
:10493000AA1A8242E7D8B2FBF3F30499039A0293CE
:10494000204600F0DAFA0028DFD1029B2361C4F888
:104950008053DAE705AA48F23601204600F034FF1A
:10496000059B2648002B4FF0F502C4BF5A43F53291
:1049700002F6DC520223D9E7002DC4D06FF0070005
:10498000C3E70DF10602052100F008FB0028BCD1A9
:104990000DF107020621204600F000FB0028B4D1EB
:1049A00002AB03AA04A9204600F0BFFA0028ACD14C
:1049B00094F87C33042BAAD0082BCBD0032BDBD16B
:1049C0009DF80630012B0FD09DF807600B4845F28B
:1049D000604246F2E8710223012E08BF0A46A5E7AD
:1049E000054841F28832A1E70448022346F2E87202
:1049F0009CE700BF8096980070640800E0C8100033
:104A000038B503224FF47A7304460D46FFF7B6FE1D
:104A1000C8B9032384F87E3384F87F33EB1E012B5F
:104A200001D9082D0CD14AF228012046FFF764FF76
:104A300048B920464FF48561BDE8384000F044BADB
:104A400048F23521F1E738BD03222021817080F83A
:104A5000782380F87F2380F87E2380F87D23082147
:104A6000FFF7CEBF70B5002386B00B600C460DF18A
:104A70000602052106468DF806308DF807300293B0
:104A80000393049300F08AFA0546002851D10DF1F2
:104A900007020621304600F081FA0546002848D179
:104AA00003AB02AA04A9304600F03FFA05460028ED
:104AB0003FD196F87C33042B11D0082B24D0032B44
:104AC00035D19DF80630012B039B03D09DF80720BC
:104AD000012A15D103F54F5334335B000BE09DF8E9
:104AE0000630012B039B03D09DF80720012A04D137
:104AF00003F59C53083323601BE003F57A73FAE750
:104B000003F528533033E8E705AA48F2360130466A
:104B100000F05AFE059AF523002AC8BF5343039AB2
:104B2000C8BFF53303EB420303F6DC53E3E76FF052
:104B30000705284606B070BD8B014FF47A72B3FBAF
:104B4000F2F3194400F0C0B913B50C4601A900F006
:104B5000C7F9019B4FF47A719A01B2FBF1F29B1AEB
:104B6000236002B010BD012970B504460E461546FB
:104B700011D87AB100EB8103D3F88823314620465F
:104B8000FFF764FE48B90035344418BF012584F8A6
:104B9000845370BDF2E76FF0030070BD012970B55A
:104BA00004460D46164611D8431893F884332BB9A2
:104BB00000EB81041846C4F8882370BDFFF746FE59
:104BC00030B904EB8504C4F8886370BD6FF003004E
:104BD00070BD38B50121044600F062FB00BB012521
:104BE0000823014684F8785384F87C332A4620460B
:104BF000FFF7B9FFA0B92A4629462046FFF7B3FFC1
:104C000070B901464FF490122046FFF7C7FF38B93C
:104C1000294620464FF48042BDE83840FFF7BEBF2A
:104C200038BD73B5054616460C4621B1012916D08C
:104C30006FF0030011E00DF1060100F08AFBBDF8F2
:104C400006309B0348B904F1E0022C4473B905EB2C
:104C50008205AB68336084F8840302B070BD01A99B
:104C600000F080FBBDF804305B02EBE705EB82054A
:104C70003360AB60012384F88433EEE737B590F8F6
:104C80007833052B044607D8042B01D2022B0CD80D
:104C90006FF00D0003B030BD623B012BF8D96FF00F
:104CA0000200F7E76FF00300F4E78578402D11D19B
:104CB0006946FFF7D7FE01A920464FF47A72009BA0
:104CC000B3FBF2F30093FFF73FFF009B019A04331D
:104CD0009342E7D806222946204600F04DFB0028E3
:104CE000D8D1042384F87833D4E77FB590F87E23B5
:104CF00090F87F339A42044637D0694600F072F943
:104D000088BB01AB02AA03A9204694F87C6394F8FF
:104D10007F5300F00AF930BB204600F007FC10BBBF
:104D20004FF4FA71204602F0E5F8E0B963692A46CB
:104D300031462046FFF722FDA8B9019B029A03994C
:104D4000204600F0DAF870B9019B236169462046DD
:104D500000F037F938B90622A178204600F00CFBA4
:104D600008B984F87E5304B070BD817800F02EFC41
:104D7000F9E701F0EBBF0000F0B50C46A3B0054623
:104D80001C22FF21204602F066F901AA02212846D2
:104D900000F0D4FC002840F088809DF846609DF823
:104DA0000630237106F01F06039B9DF80710236051
:104DB000072EBDF8400039D0BDF94420B2F5967FEA
:104DC000A6BF41F69A1312FB03F24FF4F0123A4BCE
:104DD000570803FB0073B3FBF2F31A04374B9A42F4
:104DE00094BF9B1A4FF448131B0C322B1ED9DBB215
:104DF000642B28BF6423BDF8382063715202BDF8CC
:104E00003430E260BDF818202282BDF844202283AD
:104E10005B02400200220D29A3606061A2760BD0E4
:104E200006D80139022905D8052203E03223E2E73A
:104E30001129F9D0E27600E0E176E27E3AB9321F3C
:104E4000D2B20F2A96BF1E49FF228A5CE276C5F8CD
:104E50009003C5F894336A4600212846FFF7E1FE27
:104E600095F88433012B22D1B21F5342534185F868
:104E700086336A4601212846FFF7D3FE95F885332D
:104E8000012B16D1331F5E425E4185F88763E37EB6
:104E900053B9B4F91820002A06DA0A4949688A4247
:104EA000BABF0E23E3762383002023B0F0BD002396
:104EB000DDE70026E9E700BFCDCC300033B3750055
:104EC000FC7B0008A0010020B0F8B43213B96FF0E9
:104ED0000E00704741615943C0F8AC110020704783
:104EE000B0F8B42212B96FF00E007047D0F8AC31B0
:104EF000B3FBF2F300200B60704737B50D46114647
:104F00001A46B0F85E311BB96FF00E0003B030BD29
:104F10008560C160026100F5CE7400F5C27000903A
:104F20000194284601F04DF9F0E72DE9F0410446DF
:104F3000B0F85E010F4690461E4618B96FF00E009D
:104F4000BDE8F08194F8A21101F0D6F805460146BB
:104F500094F88B0101F004F9386094F89C3194F8CE
:104F60009D0100EB0320294680B201F01EF9C8F82C
:104F7000000094F8A03194F8A10100EB0320294629
:104F800080B201F012F930603B68A360D8F80030BD
:104F9000E360336823610020BDE8F08107290DD864
:104FA000012301B18B4090F8C501184011B9107070
:104FB0000020704740FA01F11170F9E76FF003002B
:104FC000704738B50C46054600F2C3120978607880
:104FD00001F036F9A078E17805F5E27201F041F9C7
:104FE000002038BD38B505460C460A4690F8C30186
:104FF000013101F0C7F995F8C401E21CA11C01F0D0
:105000002AF9002038BD73B50C46002506460DF17F
:1050100006020DF1070190F82A028DF806508DF86E
:10502000075001F0AFF99DF8063023709DF8073066
:10503000637096F82B3228461A0903F00F03E270CA
:10504000A37002B070BD38B500F5AC71044601F034
:1050500006FAB8B904F14201204601F0ADFA88B968
:1050600004F5FD752946204601F05FFE50B904F1B4
:10507000F001284600F0A7FF04F52D72DE2120463E
:1050800001F01AFFB4F85E31B3F5805F3CBF4BF618
:10509000CC43A4F85E3120B904F19E012046FFF70D
:1050A000B2FFB4F8A2304BB994F89E301B0184F8DB
:1050B000A23094F89F301B0184F8A33038BD30B57E
:1050C0000829039D049C10D8062925D291B1B0F877
:1050D000CA101180D0F8D0201A60D0F8D8302B60D8
:1050E000D0F8E4302360002030BD122914D004D859
:1050F0001129ECD06FF0030030BD24390229F9D812
:10510000B0F8CC101180D0F8D4201A60D0F8E0307C
:105110002B60D0F8EC30E5E7B0F8CC101180D0F877
:10512000D4201A60D0F8DC302B60D0F8E830D9E712
:105130002DE9F04F8BB004460793149B0493159B05
:105140000593169B069300F5DA730893049B617030
:10515000C360059B03618846069B4361914603211A
:1051600000F5CE7208F1FF38099200F5B27500F52E
:10517000C27600F5E47700F1A40A00F5397B00F06F
:105180005FFE089B099AB8F1250F00F28480DFE8E2
:1051900008F0132E353C434A515882828282828223
:1051A00082825F668282828282828282828282821E
:1051B00082828282826D747B8DE88004314628462B
:1051C00000F07CFC002868D1A4F86491A4F8189041
:1051D000059B049A07992046FFF78FFE00285CD1B3
:1051E000069920460BB0BDE8F04FFFF76DBE8DE885
:1051F00080043146284600F005FDE3E78DE8800491
:105200003146284600F01CFDDCE78DE8800431467D
:10521000284600F033FDD5E78DE880043146284666
:1052200000F03CFDCEE78DE880043146284600F0D2
:1052300045FDC7E78DE880043146284600F059FD5A
:10524000C0E78DE880043146284600F06EFDB9E7DE
:105250008DE880043146284600F0D9FDB2E78DE89C
:1052600080043146284600F0BAFDABE78DE8800C9B
:105270003146284600F089FDA4E78DE8800C3146D0
:10528000284600F06DFD9DE78DE8800C31462846EC
:1052900000F090FD96E76FF003000BB0BDE8F08FD3
:1052A00030B5044685B00D46622100F0C9FD0122EB
:1052B0006270E27022714FF47A72A2604FF4FA6267
:1052C000E26043F2C8220023226164222370A370AB
:1052D000626184F821304FF4206240F2DB73228354
:1052E000A4F89C30204600F09EFD15B12046FFF743
:1052F000AAFE04F5887000F03EFB04F5907000F003
:105300004CFB04F5967104F1420000F055FB04F5E6
:10531000A27000F076FB04F1A40000F084FB94F886
:105320006031228B617803F00303803B84F86031A5
:105330006369029323690193E36800932046A3689D
:10534000FFF7F6FE0546204600F08FFF284605B021
:1053500030BDB0F8A6310B8000207047A0F8A61130
:1053600000207047B0F8A8310B8000207047A0F8EB
:10537000A81100207047000070B590F8CC31817002
:1053800003F00F031943B0F84231A0F87C3190F8D4
:10539000E63280F8CC11FF2B04BF002380F8E63200
:1053A000D0F8E43223F07F4323F0FF03B3F5807F8E
:1053B000C0B0044614D190F8863180F8E73220233B
:1053C00080F8863190F8C53113F0600F0ABFB0F84D
:1053D000583000239B00052AA0F8543038BF05221E
:1053E000D4F8E4324F4923F07F4323F0FF038B428C
:1053F00002BF94F8E73284F886310622531EDBB2EE
:10540000052B9ABF4849CD5C8325ADB2C5F188060E
:105410000023B6B2184699B2B14225D3052A53D912
:10542000C5F101026B4613FA82F20B2104F5AC7050
:1054300000F0BBFFB0B9C5F10D026B4613FA82F262
:10544000172104F1420001F019F858B9C5F12402FE
:105450006B4613FA82F2202104F5B27001F0BCF819
:10546000002836D040B070BD0DF803000133D2E7FC
:10547000022A3AD0002A44D1C5F183026B4613FABE
:1054800082F2052104F5E47001F0DEF90028E9D18B
:1054900033466A462946204601F0ACFC0028E1D19B
:1054A000204600F0E0FC0028DCD1204600F04FFD53
:1054B000D8E794F82E3084F8C63143F0010184F81F
:1054C000B41184F8C01123E0B5D0042ABED0032A59
:1054D000CED1C5F144026B4613FA82F2162104F5CF
:1054E000C27001F0E7F80028BCD1C5F15A026B4642
:1054F00013FA82F2172104F5CE7001F020F900288A
:10550000B0D194F8CC31C5F171029B0692B2D0D4DF
:105510006A44122104F5DA7001F054F90028A1D18F
:10552000AAE700BF000101000C7C000838B590F824
:10553000CC3103F00F03044663F07F0380F8CC31D5
:1055400000F5E47101F099F994F8CC3103F00F0300
:1055500084F8CC3105460321204600F071FC94F814
:10556000E532012B02D1204600F095FE284638BDD9
:1055700030B50129C1B004460D461AD002290CBF2E
:1055800086232C236A468821204601F053FC012DF6
:1055900011D9C8B904F52B720DF14E01382001F074
:1055A00046FA88B904F522720BA9212001F004FA09
:1055B00003E04D23E6E7002DF3D128B904F5E772A7
:1055C00069462C2001F069F941B030BD0322FFF794
:1055D000D3BE00002DE9F74F0025CF7801909F70D2
:1055E00003F14404AC464FF013084FF6FF764FF436
:1055F000006E5FFA85FA04F840AC44F83CCC91F8B0
:105600000190002F59D109F01F0BBBF1090F54D1A4
:1056100004F8028CBAF1010F5CD091F80290B9F154
:10562000070F4FD1B1F8129024F8309CB1F81090C8
:1056300024F8149CB1F8169024F8129CB1F8089044
:1056400024F8109CB1F80A9001984FEA4919B14525
:1056500028BFB14624F8089CB1F80C9024F8069CA9
:10566000B1F80E9000FB09F9506844F81C0C9068E2
:1056700044F8180CD06844F82C0C106809F58069BF
:1056800099FBFEF924F8049C0135022D44F8200C06
:1056900004F14004ADD10020D8704A7802F01F0216
:1056A000112A07D80121244C914021421CBFDA70F5
:1056B00083F8420003B0BDE8F08F09F01F0904F839
:1056C000029CA7E7B9F1080F0CBFB1F81490B1F82C
:1056D0000490A9E7B1F8189024F8309CB1F81A901A
:1056E00024F8149C24F8126CB1F81C9024F8109C37
:1056F000B1F81E9001984FEA4919B14528BFB1464B
:1057000024F8089CB1F8209024F8069CB1F8229067
:1057100009FB00F9506944F81C0C906944F8180C16
:10572000D06944F82C0C09F58069106999FBFEF9E1
:1057300024F8049CA8E700BF0E2002002DE9F041E8
:105740000446904600F53D76FFF712FF054640B946
:10575000334604F5227204F5E771B4F89C00FFF7B4
:1057600039FF94F8E572012F12D145B994F8E63269
:105770000BBB204600F0B5FD84F8E672054694F8B0
:10578000E632FF2B04D01DB9204600F0C9FD0546C6
:1057900094F82C3084F8F43294F8303084F8F532F0
:1057A00084223146404601F04BFC55B92046BDE805
:1057B000F04100F0A0BB012B04BF022384F8E632C5
:1057C000DDE72846BDE8F081A1F50041382900F267
:1057D000CC80DFE801F01D2225282B2E3134373A0A
:1057E0003D404346494C4F5255585B5E6164676A81
:1057F0006D707376797C7F8285888B8E9194979A71
:105800009DA0A3A6A9ACAFB2B5B8BBBEC1C4C7002A
:10581000B0F8A430136000207047B0F8A630F9E764
:10582000B0F8A830F6E790F8B030F3E790F8B13070
:10583000F0E7B0F8B230EDE7B0F89C30EAE790F866
:10584000B430E7E7B0F8B630E4E7B0F8B830E1E7F5
:10585000B0F8BA30DEE7B0F8BC30DBE7B0F8BE3005
:10586000D8E7B0F8C030D5E790F8C230D2E790F86A
:10587000C330CFE790F8C430CCE790F84031C9E7A7
:1058800090F8C530C6E790F8C730C3E790F8C83045
:10589000C0E7B0F93E31BDE790F8AA30BAE790F81A
:1058A000AB30B7E790F8AC30B4E790F8AD30B1E783
:1058B00090F8AE30AEE790F8AF30ABE790F8C63076
:1058C000A8E790F86031A5E790F81031A2E790F8CA
:1058D00011319FE7D0F814319CE7B0F8183199E7FF
:1058E000B0F81A3196E7B0F81C3193E7B0F84431BC
:1058F00090E7D0F848318DE7D0F850318AE7D0F8FA
:105900004C3187E790F8543184E790F8553181E7BE
:1059100090F856317EE790F821317BE790F82231FC
:1059200078E7B0F8283175E7B0F8CA3072E7B0F818
:10593000CC306FE7D0F8D0306CE7D0F8D43069E7DE
:10594000D0F8D83066E7D0F8DC3063E7D0F8E43040
:1059500060E7D0F8E8305DE790F8E4325AE7D0F835
:10596000E03057E7D0F8EC3054E76FF000431360B5
:105970006FF003007047082303700B2343704FF44C
:105980007A7343604FF4206303814FF4A063438133
:105990004FF4A053838100207047034612225A70AF
:1059A0000F229A700222DA7048F6A04200205A6054
:1059B0000C2218701A817047034610B540890860A0
:1059C0000C46B3F90E20B3F90C10A18000236382BA
:1059D0004023E280A060A181E281237558B9636809
:1059E0004BB92074237C012B08D1402300F093FB9A
:1059F000E082002010BD01232374F3E70023E3823B
:105A0000F7E74FF4206303804FF47A73436043F267
:105A1000C8238360C36008230374282343740923C5
:105A200083740020704748F20302028048F20102AA
:105A30000346428048F2410282800A210622D9713F
:105A40001A729972DA720221212219735A7383F839
:105A500021104FF4B47283F823104FF420615A825E
:105A60009A82DA82D984C022198548F230011A83D9
:105A70005A839A83D96208224FF47A710E209A775A
:105A8000196310224FF4FA6198715872DA77002086
:105A90000122596399634FF2186183F8202083F83B
:105AA0002220D881187483F82400196443F2C82195
:105AB000DA634FF4FA5259649A6470472DE9F0475B
:105AC00004464FF42060099D20804FF0020E002014
:105AD0004FF008081126A070E07020716071A0716D
